:100A8500522D4C616273004E6F7420507265737302
:030A950065640095
:09094000120800D2917F057E002F
:10094900E4FDFCC3ED9FEE6480F8EC6480985015DB
:10095900E4FBFA0BBB00010AEB64644A70F50DBDB8
:0509690000010C80DE1E
:01096E002266
:10080000EF30E004D2A08002C2A0EF30E104D2A118
:100810008002C2A1EF30E204D2A28002C2A2EF3075
:10082000E304D2A38002C2A3EF30E404D2A4800286
:10083000C2A4EF30E504D2A58002C2A5EF30E604E1
:10084000D2A68002C2A6EF30E703D2A722C2A72217
:070AAA007E001209497F30B4
:080AB100C290120940C291221B
:050AEB007F01020AB1C9
:100A6A008F1CA905E51CB40105E924808008E51C52
:0B0A7A00B40207E924C0FF120AB122F9
:1009F200E4FF120800C2907FC8120AAA7F32120ACC
:100A0200AA7F6E120AAA7F38120AB17F0C120AB1AB
:0A0A12007F01120AB17F06020AB14B
:080AE300D290120940C29122D9
:0B090A007F82120AB17BFF7A0A798C11
:060915008B0E8A0F891011
:10091B00E4F511F512AB0EAA0FA910851282851101
:10092B008312096FFF600D120AE30512E51270E5E1
:04093B00051180E141
:01093F002295
:050AF0007F1C020AB1A9
:050AF5007F18020AB1A8
:100A1C00EF30E004D2A48002C2A4EF30E104D2A5EE
:100A2C008002C2A5EF30E204D2A68002C2A6EF304B
:080A3C00E303D2A722C2A722A6
:070A98007E001209497F03F3
:0B0A9F00C290120A1C120943C29122EF
:0A0AC500E4FF120A9F7F01020A9F5E
:040893008F18A9050C
:10089700E518B40112E92480FFF5197804A2E713DB
:1008A700D8FBF51AEF8016E518B4021FE92480F586
:1008B700197804A2E713D8FBF51AE924C0540FF5F9
:0B08C7001BAF1A120A9FAF1B120A9F02
:0108D2002203
:1008D300E4FF120A1C7FC8120A987F32120A987F1B
:1008E3006E120A987F02120A9F7F02120A9F7F08E4
:1008F300120A9FE4FF120A9F7F0C120A9FE4FF1261
:070903000A9F7F06020A9F14
:02099C00AE07A4
:10099E00EE540FF9EE54F0FFD2907804A2E713D87C
:1009AE00FBFF120A1C120943C291AF01120A1CD29C
:0809BE00917F05120949C29165
:0109C600220E
:0609C7008B138A14891550
:1009CD00E4F516F517AB13AA14A91585178285162C
:1009DD008312096FFF600D12099C0517E51770E56D
:0409ED00051680E18A
:0109F10022E3
:0A0ACF007F01120A9F7F0C020A9FAC
:0A0AD9007F01120A9F7F08020A9FA6
:100A4400E4FDFCC3ED9FEE6480F8EC6480985015DF
:100A5400E4FBFA0BBB00010AEB64644A70F50DBDBC
:050A640000010C80DE22
:010A6900226A
:100850001209F220B023E50B450A70077F01120A46
:10086000B180007F82120AB17BFF7A0A7985120972
:1008700015750A00750B0180DA7F01120AB11209A1
:100880000AE4F50AF50B12000012090AE4F50AF56C
:030890000B80C01A
:03000000020AB938
:0C0AB900787FE4F6D8FD75811C0208501F
:10096F00BB010CE58229F582E5833AF583E022503D
:10097F0006E92582F8E622BBFE06E92582F8E22287
:0D098F00E58229F582E5833AF583E49322A1
:00000001FF
