:0F0CBD00C1C2C3C4C5C6C7C8C9CACBCCCDCECF70
:090B6800120A6DD2917F057E0096
:100B7100E4FDFCC3ED9FEE6480F8EC6480985015B1
:100B8100E4FBFA0BBB00010AEB64644A70F50DBD8E
:050B910000010C80DEF4
:010B9600223C
:100A6D00EF30E004D2A08002C2A0EF30E104D2A1A9
:100A7D008002C2A1EF30E204D2A28002C2A2EF3006
:100A8D00E304D2A38002C2A3EF30E404D2A4800217
:100A9D00C2A4EF30E504D2A58002C2A5EF30E60472
:100AAD00D2A68002C2A6EF30E703D2A722C2A722A8
:070CAE007E00120B717F3084
:080CB500C290120B68C29122EB
:050CFC007F01020CB5B0
:100C6A008F29A905E529B40105E924808008E52929
:0B0C7A00B40207E924C0FF120CB522F1
:100C1800E4FF120A6DC2907FC8120CAE7F32120C2C
:100C2800AE7F6E120CAE7F38120CB57F0C120CB56D
:0A0C38007F01120CB57F06020CB517
:0F0C8500120C94E4FF120C94E4FF120C94E4FFA1
:080C9400D290120B68C29122FC
:060B97008B1B8A1C891D66
:100B9D00E4F51EF51FAB1BAA1CA91D851F82851E22
:100BAD0083120A40FF600D120C94051FE51F70E5BE
:040BBD00051E80E1B0
:010BC1002211
:050D01007F1C020CB58F
:050D06007F18020CB58E
:100C4200EF30E004D2A48002C2A4EF30E104D2A5C6
:100C52008002C2A5EF30E204D2A68002C2A6EF3023
:080C6200E303D2A722C2A7227E
:070C9C007E00120B717F03C3
:0B0CA300C290120C42120B6BC2912297
:0A0CD800E4FF120CA37F01020CA33D
:040ABD008F25A905D3
:100AC100E525B40112E92480FFF5267804A2E71395
:100AD100D8FBF527EF8016E525B4021FE92480F540
:100AE100267804A2E713D8FBF527E924C0540FF5B3
:0B0AF10028AF27120CA3AF28120CA3A3
:010AFC0022D7
:100AFD00E4FF120C427FC8120C9C7F32120C9C7FBB
:100B0D006E120C9C7F02120CA37F02120CA37F08A5
:100B1D00120CA3E4FF120CA37F0C120CA3E4FF1222
:070B2D000CA37F06020CA3DC
:020BC200AE077C
:100BC400EE540FF9EE54F0FFD2907804A2E713D854
:100BD400FBFF120C42120B6BC291AF01120C42D2FA
:080BE400917F05120B71C29113
:010BEC0022E6
:060BED008B208A21892201
:100BF300E4F523F524AB20AA21A9228524828523A9
:100C030083120A40FF600D120BC20524E52470E530
:040C1300052380E154
:010C170022BA
:0A0CE2007F01120CA37F0C020CA38B
:0A0CEC007F01120CA37F08020CA385
:0E0B34007FC0120CB57F03120C947FC87E00A8
:100B4200E4FDFCC3ED9FEE6480F8EC6480985015E0
:100B5200E4FBFA0BBB00010AEB64644A70F50DBDBD
:050B620000010C80DE23
:010B6700226B
:10080000780C7C007D007BFF7A0C79BD7E007F0F29
:10081000120A1A7F40120CB5120C887F0C120C942D
:100820007F0C120C857FC0120CB5E4FF120C94E40F
:10083000F50AF50B740C250BF8E6FF120CB5E4FF76
:10084000120C94050BE50B7002050AC39410E50A1F
:100850006480948040DE120B3E7F60120CB57F0EE8
:10086000120C947F1F120C947F15120C947F15129A
:100870000C947F15120C947F1F120C947F0A120C9B
:100880008F7FCF120CB57F04120B3B7F48120CB543
:10089000E4FF120C947F0F120C947F1E120C947FB5
:1008A0001C120C947F1C120C947F1E120C947F0F50
:1008B000120C8F7FC0120CB57F01120B3B7F5012C0
:1008C0000CB5E4FF120C947F0E120C947F1F120CD7
:1008D000947F1F120C947F1F120C947F1F120C9494
:1008E0007F0E120C8F7FC0120CB57F02120B3B7F64
:1008F00058120CB5E4FF120C85E4FF120C85120BA4
:1009000034120B34E4F50AF50BC3E50B9410E50A39
:10091000648094804003020800E4F508F509740C33
:10092000250BF8E6FF120CB5AF09120B3B0509E5E4
:100930000970020508C39404E5086480948040DED1
:0A094000050BE50B70C3050A80BF2C
:060CF600120C18020800B8
:03000000020CCC23
:0C0CCC00787FE4F6D8FD758129020CF653
:10094A00E709F608DFFA8046E709F208DFFA803E8F
:10095A0088828C83E709F0A3DFFA8032E309F6087C
:10096A00DFFA8078E309F208DFFA807088828C83E4
:10097A00E309F0A3DFFA806489828A83E0A3F60898
:10098A00DFFA805889828A83E0A3F208DFFA804C72
:10099A0080D280FA80C680D4806980F28033801049
:1009AA0080A680EA809A80A880DA80E280CA8033B2
:1009BA0089828A83ECFAE493A3C8C582C8CCC5832A
:1009CA00CCF0A3C8C582C8CCC583CCDFE9DEE780FA
:1009DA000D89828A83E493A3F608DFF9ECFAA9F079
:1009EA00EDFB2289828A83ECFAE0A3C8C582C8CCCF
:1009FA00C583CCF0A3C8C582C8CCC583CCDFEADEE8
:100A0A00E880DB89828A83E493A3F208DFF980CC49
:100A1A0088F0EF60010E4E60C388F0ED2402B40442
:100A2A000050B9F582EB2402B4040050AF232345E9
:060A3A00822390099A736B
:100A4000BB010CE58229F582E5833AF583E022506B
:100A500006E92582F8E622BBFE06E92582F8E222B5
:0D0A6000E58229F582E5833AF583E49322CF
:00000001FF
